:020000040800F2
:10000000E8160020B9020008891F00089D1C00089E
:10001000851F00088D070008072600080000000063
:10002000000000000000000000000000AD210008FA
:1000300021080008000000008D1F0008AF21000803
:10004000D3020008D3020008D3020008D30200083C
:10005000D3020008D3020008D3020008D30200082C
:10006000D3020008D3020008D3020008D30200081C
:10007000D3020008D3020008D3020008D30200080C
:10008000D3020008D3020008D302000800000000D9
:10009000000000000000000000000000D302000883
:1000A000D3020008D3020008D3020008D3020008DC
:1000B000D3020008D3020008D3020008D3020008CC
:1000C000D3020008D3020008D3020008D3020008BC
:1000D000D3020008D3020008D30200080000000089
:1000E000D3020008D3020008D30200080000000079
:1000F000000000000000000000000000D302000823
:1001000000000000D3020008D3020008D302000858
:1001100000000000000000000000000000000000DF
:10012000D3020008D3020008D3020008D30200085B
:10013000D3020008000000000000000000000000E2
:10014000000000000000000000000000D3020008D2
:10015000D3020008D3020008D3020008D30200082B
:10016000D3020008D30200080000000000000000D5
:10017000000000000000000000000000000000007F
:1001800000000000D3020008000000000000000092
:10019000D3020008D302000800F002F800F063F870
:1001A0000AA090E8000C82448344AAF10107DA45D2
:1001B00001D100F058F8AFF2090EBAE80F0013F0C1
:1001C000010F18BFFB1A43F0010318478CD003003E
:1001D000ACD003000A444FF0000C10F8013B13F0C0
:1001E000070408BF10F8014B1D1108BF10F8015B90
:1001F000641E05D010F8016B641E01F8016BF9D183
:1002000013F0080F1EBF10F8014BAD1C0C1B09D1D9
:100210006D1E58BF01F801CBFAD505E014F8016B4B
:1002200001F8016B6D1EF9D59142D6D370470000DD
:100230000023002400250026103A28BF78C1FBD8EF
:10024000520728BF30C148BF0B607047642900F0D7
:100250001381002070471FB503F0E6FE00F05DF942
:100260001FBD10B510BD00F007FA1146FFF7F3FFF0
:1002700002F020FF00F025FA03B4FFF7F2FF03BC01
:1002800000F028FA0B49D1F800C04A685CF8043B3A
:100290001068184442F8040B8C4528BFA1F1DC0C0F
:1002A0008A4228BFA1F1DC02C1F800C04A6020F0F8
:1002B000004070477C1000200948804709480047EB
:1002C000FEE7FEE7FEE7FEE7FEE7FEE7FEE7FEE706
:1002D000FEE7FEE704480549054A064B7047000063
:1002E0002D23000899010008E8100020E8160020DE
:1002F000E8120020E812002053EA020C00F06980A6
:100300002DE9F04B4FF00006002B1FBFB3FA83F529
:1003100003FA05F424FA05F65E4012BF1643B2FA5A
:1003200082F502FA05F4C5F120051EBF22FA05FC8C
:1003300044EA0C04203556EA044C4FEA144418BF32
:10034000641C4FF000084FF00009904271EB030C61
:1003500039D3002919BFB1FA81F701FA07F6B0FACB
:1003600080F700FA07F6C7F120071EBF20FA07FC46
:1003700046EA0C062037B6FBF4FCA7EB0507103F56
:1003800007F01F0BCBF120060CFA0BFB2CFA06F63C
:1003900044BFB3460026202FA4BF5E464FF0000B9B
:1003A0005BEA060C08BF4FF0010B19EB0B09ABFB26
:1003B000027C48EB0608C01B06FB02CC0BFB03CCFF
:1003C00071EB0C01C1E70B46024641464846BDE8C9
:1003D000F08B13B54FF000004FF00001AFF3008039
:1003E000BDE81C40704700000FB41CB5074B06AABF
:1003F0007B4469460090059800F021F90020694689
:1004000000F030F91CBC5DF814FB00007102000024
:100410002DE9F0410E460446002020622046E168A6
:10042000884730B3252805D0D4E901219047206AB8
:10043000401CF2E7E168204600278847050018D0F5
:10044000A5F14100192802D820354FF40067324643
:10045000294620462760FFF7F9FE40B1012804D065
:10046000F61D26F007060836D8E7361DD6E72846DB
:10047000DAE7206ABDE8F0812DE9F0410646002464
:1004800010687529314616A510D0AFF300800028FA
:1004900002DA404213A507E031688A0701D512A5A8
:1004A00002E0490704D511A5012401E0AFF3008063
:1004B00000210A2206F1240709E0B0FBF2FCB0FBA0
:1004C000F2F302FB1C00303078541846491C002817
:1004D000F3D123462A463046BDE8F04100F050B83B
:1004E000000000002D0000002B0000002000000094
:1004F0000B4910B5A1F17C020A4CC2E93712372131
:1005000006E000EB104342F82130074B00FB0340AC
:100510000B1EA1F10101F4DC10BD0120E8E7000091
:100520001C100020E119D666CD0D01004FF000022D
:1005300000B5134694469646203922BFA0E80C50D9
:10054000A0E80C50B1F12001BFF4F7AF090728BFB4
:10055000A0E80C5048BF0CC05DF804EB890028BF30
:1005600040F8042B08BF704748BF20F8022B11F059
:10057000804F18BF00F8012B7047704770477047D5
:100580002DE9F0470D4699469246044600F12408AD
:100590000168880604D5E06921F01001216000E0BF
:1005A0000120A84201DD471B00E00027A1697A195C
:1005B00002EB0900081AA0612078C00602D4204688
:1005C000AFF30080002608E0D4E901211AF8060004
:1005D0009047206A401C761C20624E45F4DB207850
:1005E000C0060AD52046AFF3008006E0D4E9012119
:1005F00030209047206A401C2062381EA7F1010776
:10060000F4DC07E0D4E9012118F805009047206ADE
:10061000401C2062281EA5F10105F3DC2046AFF343
:1006200000802078000602D50220BDE8F087012076
:10063000FBE7000001694A1C02610878704700B5B9
:100640008FB0CDE901310021059105497944CDE90B
:10065000031011466846FFF7DBFE0FB000BD000037
:10066000E5FFFFFF0A6802F8010B0A60704700000F
:1006700000487047841000207546FFF7F9FFAE462A
:1006800005006946534620F00700854618B020B59E
:10069000FFF720FEBDE820404FF000064FF00007B6
:1006A0004FF000084FF0000B21F00701AC46ACE81A
:1006B000C009ACE8C009ACE8C009ACE8C0098D4687
:1006C000704710B50446AFF300802046BDE81040E7
:1006D000FFF7D2BD01491820ABBEFEE7260002009D
:1006E000704700001748006840F4807015490860A2
:1006F00014481438006840F00100124914390860A9
:100700001148006840F03C000F4908600F484068FD
:1007100040F480700D4948600846806840F002004F
:1007200088600846C06A40F48010C8620846806845
:1007300040F0010088600846806840F08040886092
:100740007047000044380240000002400020014091
:1007500038B504464FF6FF70009004F11800C3B29C
:10076000601FC1B258223A2002F0FAF8052000F0CA
:1007700003F905481A231322B7EE000A2146009018
:100780003C2002F04FF838BD0000002000BFFEE71B
:1007900038B505460C46284600F028F81248006A8D
:1007A00040F00100104908620846006840F001006E
:1007B00008600020009002E00098401C009004EBCC
:1007C0004400C0EBC4100099B1EBC00FF4D306484D
:1007D000006A20F00100044908620846006820F021
:1007E0000100086038BD00000000014030B5094B31
:1007F000632218B90024084D6C6330BD074CB4FB6C
:10080000F0F4611E044CA262E1624C08024D6C637C
:1008100000BFF2E700E1F5050000014040420F0093
:10082000704738B504460D46B02C32DA4FF6FF70EB
:10083000EBB204F12901CAB2491E0090C8B20021EE
:1008400002F08EF84FF6FF7004F12903DAB205F1D9
:100850004103D9B204F128030090D8B2C82302F0B2
:100860007FF84FF4FC60EBB204F12701CAB20090AC
:10087000E0B2002102F074F84FF4FC6004F12703A9
:10088000DAB205F14103D9B20090E0B2C82302F018
:1008900067F838BD72B600BFFEE700001CB54FF622
:1008A000FF70642369221E210090FB2002F058F89B
:1008B00029A002234FF4784232210090052002F053
:1008C00030F828A001234FF478425A2100901E20CE
:1008D00002F027F800200190244800680A280CD272
:1008E00001200090214800783030C2B24FF47843A4
:1008F0005A215F2001F046FF1AE01C4800680A21D7
:10090000B0FBF1F03030C0B28DF804001748006839
:10091000B0FBF1F201FB120030308DF8050001A8A8
:1009200001234FF478425A2100905F2001F0F9FF33
:1009300000BF02F037FA0028FBD19FED0D0B01F04C
:1009400081FE00BF02F02EFA0028FBD09FED080BBD
:1009500001F078FE1CBD000047616D65204F766593
:100960007200000053636F72653A00001C0500209E
:10097000000000000000594070B5044600F002F984
:1009800006462546681C10B104480078054400BF9F
:1009900000F0F8F8801BA842FAD370BD680500206B
:1009A000F8B502460B460025002400200021C7E0D0
:1009B000012606FA01F51E6806EA0504AC4274D168
:1009C0001E7906F00306012E04D01E7906F00306F8
:1009D000022E13D190684F000326BE40B0434F0053
:1009E000DE68BE4030439060506801268E40B043C0
:1009F0001E79C6F300168E40304350601E7906F013
:100A00000306032E09D0D0684F000326BE40B04332
:100A10004F009E68BE403043D0601E7906F003064A
:100A2000022E13D1CF0802F1200656F827004E07F8
:100A3000F70E0F26BE40B0434F07FF0E1E69BE40A3
:100A40003043CF0802F1200646F8270010684F0017
:100A50000326BE40B0431E7906F003064F00BE4099
:100A6000304310605E6806F44036002E67D000BF49
:100A700000260096344E366846F48046324F3E607B
:100A80003E46366806F48046009600BF00BF2F4EF3
:100A90008F0856F827008E07370F0F26BE40B04349
:100AA0002B4EB24202D1002615E048E0294EB24258
:100AB00001D101260FE0284EB24201D102260AE000
:100AC000264EB24201D1032605E0254EB24201D1A5
:100AD000042600E007268F073F0FBE4030431B4E21
:100AE0008F0846F827001F4E3068A0435E6806F462
:100AF000801606B120431B4E3060361D3068A0437F
:100B00005E6806F4001606B12043164E361D3060AE
:100B1000144E361F3068A0435E6806F4003606B1F6
:100B20002043104E361F3060361F3068A0435E6889
:100B300006F4803606B120430A4E083E3060491C58
:100B40001029FFF435AFF8BD4438024008380140A1
:100B5000000002400004024000080240000C024075
:100B600000100240083C0140024613690B400BB1E3
:100B7000012000E0002070470AB1816101E00B0410
:100B800083617047014800687047000060050020DD
:100B90000348006803490978084401490860704720
:100BA000600500206805002010B50D48006840F47D
:100BB00000700B4908600846006840F480600860D7
:100BC0000846006840F480700860032000F092F846
:100BD0000F2000F007F800F02BF8002010BD0000F7
:100BE000003C024070B504460E4800784FF47A711C
:100BF000B1FBF0F00C490968B1FBF0F5284600F0B4
:100C00007BFD08B1012070BD102C07D200222146C7
:100C1000501E00F031F80548046001E00120F2E7C1
:100C20000020F0E7680500206C0500206405002026
:100C300008B500BF002000900E48006840F48040D6
:100C40000C4908600846006800F48040009000BF2E
:100C500000BF00BF00200090081F006840F08050D7
:100C6000091F08600846006800F08050009000BF2F
:100C700000BF08BD443802402DE9F05F80460D46B4
:100C80001646002701F0C2FC074639462A4633467D
:100C900001F00700C0F1070ABAF1040F02D94FF0C2
:100CA000040A01E0C0F1070AD14600F1040ABAF1D2
:100CB000070F02D24FF0000A01E0A0F1030AD44668
:100CC0004FF0010A0AFA09FAAAF1010A0AEA020A2D
:100CD0000AFA0CFA4FF0010B0BFA0CFBABF1010B0B
:100CE0000BEA030B4AEA0B042146404601F096FC4E
:100CF000BDE8F09F00BF00F00702064B19684FF6F1
:100D0000FF031940044B0B4343EA0221014B1960D6
:100D100000BF70470CED00E00000FA0570B5044616
:100D20000D460CB9012070BD5848006800F007005E
:100D3000A84209D255490D700846006800F0070026
:100D4000A84201D00120EEE7207800F0020002283E
:100D50001DD1207800F00400042805D14C4800681B
:100D600040F4E0504A490860207800F00800082864
:100D700005D14748006840F4604045490860444850
:100D8000006820F0F000A16808434149086020781D
:100D900000F00100A8B36068012807D13C4808387A
:100DA0000068C0F34040B8B90120BCE76068022881
:100DB00002D06068032807D1354808380068C0F3BE
:100DC000406048B90120AEE7314808380068C0F3F8
:100DD000400008B90120A6E72D48006820F0030074
:100DE000616808432A490860FFF7CCFE064609E01F
:100DF000FFF7C8FE801B41F28831884202D90320E8
:100E000091E707E02248006800F00C006168B0EB51
:100E1000810FEDD11D48006800F00700A84209D9F4
:100E20001A490D700846006800F00700A84201D07A
:100E3000012078E7207800F00400042807D1144846
:100E4000006820F4E050E168084311490860207808
:100E500000F00800082808D10D48006820F4604020
:100E6000216940EAC1000A49086000F019F8084900
:100E70000968C1F30311074A515CC840064908607C
:100E800006480068FFF7AEFE00204CE7003C024039
:100E90000838024014CD03086C05002064050020CA
:100EA0002DE9F047002400250026A14625480068CA
:100EB00000F00C0020B1042805D008283AD105E044
:100EC000DFF8849039E0DFF8849036E01D48001F99
:100ED000006800F03F041B48001F006800F4800019
:100EE00078B11A481749091F0968C1F38811A0FB96
:100EF00001700146224600233846FFF7FDF90546FA
:100F00000EE011480F49091F0968C1F38811A0FBC1
:100F100001700146224600233846FFF7EDF90546E9
:100F20000848001F0068C0F30140401C4600B5FBA4
:100F3000F6F902E0DFF8109000BF00BF4846BDE8B8
:100F4000F0870000083802400024F40040787D015A
:100F5000F8B504460CB90120F8BD207800F0010076
:100F6000002874D0F948006800F00C0004280DD067
:100F7000F648006800F00C00082813D1F348001F61
:100F8000006800F48000B0F5800F0BD1EF480838FE
:100F90000068C0F34040002859D06068002856D14E
:100FA0000120D9E700BF6068B0F5803F08D1E7486D
:100FB0000838006840F48030E449083908601EE0D1
:100FC0006068B0F5A02F0DD1E0480838006840F403
:100FD0008020DE49083908600846006840F4803007
:100FE00008600CE0D9480838006820F48030D74900
:100FF000083908600846006820F48020086000BFB7
:10100000606890B1FFF7BEFD054606E0FFF7BAFD48
:10101000401B642801D903209EE7CC4808380068AB
:10102000C0F340400028F1D011E0FFF7ABFD0546CA
:1010300006E0FFF7A7FD401B642801D903208BE7DA
:10104000C24808380068C0F340400028F1D1207839
:1010500000F0020002285FD1BC48006800F00C00DC
:1010600058B1BA48006800F00C0008281CD1B748F5
:10107000001F006800F48000B0B9B4480838006868
:10108000C0F3400020B1E068012801D0012063E7EF
:10109000AE480838006820F0F800216940EAC10035
:1010A000AA490839086037E0E06800B30120A84980
:1010B0000860FFF767FD054606E0FFF763FD401B8C
:1010C000022801D9032047E7A04808380068C0F388
:1010D00040000028F1D09D480838006820F0F80052
:1010E000216940EAC10099490839086014E00020EC
:1010F00097490860FFF746FD054606E0FFF742FD09
:10110000401B022801D9032026E7904808380068D0
:10111000C0F340000028F1D1207800F00800082832
:101120002CD16069A8B101208A490860FFF72AFD27
:10113000054606E0FFF726FD401B022801D90320E3
:101140000AE782486C300068C0F340000028F1D004
:1011500014E000207F490860FFF714FD054606E013
:10116000FFF710FD401B022801D90320F4E6774861
:101170006C300068C0F340000028F1D1207800F006
:101180000400042870D1002770483830006800F04F
:10119000805090B900BF002000906C483830006843
:1011A00040F080506949383108600846006800F016
:1011B0008050009000BF00BF01276748006800F41E
:1011C0008070B0B96448006840F48070624908607B
:1011D000FFF7D8FC054606E0FFF7D4FC401B0228C9
:1011E00001D90320B8E65C48006800F4807000284C
:1011F000F2D000BFA068012808D1544868300068C8
:1012000040F001005149683108601DE0A0680528E0
:101210000DD14E486830006840F004004B496831F9
:1012200008600846006840F0010008600CE047488C
:101230006830006820F001004449683108600846C1
:10124000006820F00400086000BFA068A8B1FFF7A4
:1012500099FC054609E0FFF795FC401B41F28831F7
:10126000884202D9032077E626E0384868300068D3
:10127000C0F340000028EED013E0FFF783FC0546E2
:1012800008E0FFF77FFC401B41F28831884201D91A
:10129000032061E62D4868300068C0F34000002854
:1012A000EFD1012F07D129483830006820F0805055
:1012B00026493831086000BFA069002845D023487E
:1012C000006800F00C0008285DD0A069022845D114
:1012D00000201F490866FFF755FC054606E0FFF7AA
:1012E00051FC401B022801D9032035E61748083875
:1012F0000068C0F340600028F1D1D4E90701084339
:10130000616A40EA81110122A06AC2EB500041EA01
:1013100000412C20005D41EA00600C49091F086073
:1013200001200B490866FFF72DFC054606E0FFF794
:1013300029FC401B022801D903200DE60348083888
:101340000068C0F340600028F1D049E0083802404E
:1013500000004742800E47420070004000202149B3
:101360000866FFF70FFC054606E0FFF70BFC401B85
:10137000022801D90320EFE51B480068C0F3406054
:101380000028F2D12CE0A069012800D1E4E516483C
:10139000001D0668A069012820D006F48001E069DC
:1013A00081421BD106F03F01206A814216D147F6E7
:1013B000C0703040616AB0EB811F0FD106F440313C
:1013C0000122A06AC2EB5000B1EB004F06D106F03B
:1013D00070612C20005DB1EB006F01D00120BBE5F6
:1013E0000020B9E5000047420038024010B504462D
:1013F0000CB9012010BD606A38B96068B0F5827F11
:1014000000D105E00021E16102E00021216161617C
:101410000021A16294F8510028B9002084F85000FE
:10142000204600F047F8022084F851002068006848
:1014300020F0400021680860A08800F482702189B3
:1014400001F404410843A18901F400610843217CAF
:1014500001F002010843217D01F001010843218BC5
:1014600001F400710843217F01F038010843202175
:10147000095D01F080010843218D01F4005108430A
:10148000216808600421A06901EA104094F8241042
:1014900001F010010843216848602068C06920F409
:1014A00000602168C86100206065012084F8510057
:1014B00000209FE710B586B00446142101A8FFF76D
:1014C00035F81B49206888422FD100BF00200090CA
:1014D0001848006840F480501649086008460068C3
:1014E00000F48050009000BF00BF00BF00200090BB
:1014F00010481438006840F001000E4914390860A3
:101500000846006800F00100009000BF00BFA02066
:1015100001900220029000200390032004900520F7
:10152000059001A90448FFF73BFA06B010BD000082
:101530000030014044380240000002402DE9F84FDD
:101540000446884616461D464FF0000A00BF94F830
:101550005000012802D10220BDE8F88F012084F854
:10156000500000BFFFF70EFB0746B14694F851004C
:10157000012802D04FF0020AB7E0B8F1000F00D006
:1015800016B94FF0010AB0E0032084F851000020A2
:101590006065C4F83080A686E686A063A087E087F1
:1015A00060642064A068B0F5004F0BD1206800682B
:1015B00020F04000216808602068006840F4804006
:1015C000216808602068006800F04000402805D0CD
:1015D0002068006840F0400021680860E068B0F5CD
:1015E000006F32D1606810B1B9F1010F09D1206BE1
:1015F00000882168C860206B801C2063E08E401E3C
:10160000E0861EE02068806800F0020002280AD10F
:10161000206B00882168C860206B801C2063E08EEE
:10162000401EE0860DE0FFF7ADFAC01BA84201D3D3
:10163000681C00B92DB94FF0030A012084F851004D
:1016400053E0E08E0028DDD131E0606810B1B9F1DF
:10165000010F09D1206B007821680873206B401CB2
:101660002063E08E401EE0861EE02068806800F067
:10167000020002280AD1206B007821680873206BD1
:10168000401C2063E08E401EE0860DE0FFF77AFAF2
:10169000C01BA84201D3681C00B92DB94FF0030A42
:1016A000012084F8510020E0E08E0028DDD13A4688
:1016B0002946204600F0CAFC08B120206065A068D9
:1016C00050B900BF002000902068C06800902068DA
:1016D0008068009000BF00BF606D10B14FF0010A3C
:1016E00002E0012084F8510000BF00BF002084F810
:1016F000500000BF50462FE770B504462546681ECF
:10170000B0F1807F01D301200FE0681E4FF0E0218F
:1017100048610F214FF0FF3000F080FF00204FF0B4
:10172000E021886107200861002070BD10B50346E4
:10173000002200BF93F83C00012801D1022010BD17
:10174000012083F83C0000BF22F0FF00CC6840EA93
:10175000040222F440708C6840EA040222F48060A3
:101760004C6840EA040222F400600C6840EA04027B
:1017700022F480500C6940EA040222F400504C69C3
:1017800040EA040222F48040CC6940EA040218686E
:10179000426400BF002083F83C0000BF00BFCEE7DA
:1017A00030B502460B4600BF92F83C00012801D13B
:1017B000022030BD012082F83C0000BF022082F8E8
:1017C0003D00106844681068816824F0700418684F
:1017D000044310684460144D1068A84213D0106888
:1017E000B0F1804F0FD0114D1068A8420BD0104DB2
:1017F0001068A84207D00F4D1068A84203D00E4DC4
:101800001068A84205D121F0800158680143106892
:101810008160012082F83D0000BF002082F83C007A
:1018200000BF00BFC5E70000000001400004004009
:1018300000080040000C00400040014010B5044684
:101840000CB9012010BD94F83D0028B9002084F89F
:101850003C00204600F026F8022084F83D00211DBF
:10186000206800F06DFD012084F8460000BF84F878
:101870003E0001213F2001554020015541200155E6
:1018800000BF00BF012084F84200432001554420DE
:1018900001554520015500BF012084F83D0000207E
:1018A000D0E7000008B50A4A016891420FD100BF95
:1018B000002100910749096841F00101054A1160C2
:1018C0001146096801F00101009100BF00BF08BD89
:1018D00000000140443802402DE9F04104460D4625
:1018E000002700BF94F83C00012802D10220BDE887
:1018F000F081012084F83C0000BF022084F83D0004
:101900002068866826F0770626F47F462068866081
:101910002868502833D00CDC202850D004DC002864
:101920004BD0102851D149E0302849D040284CD123
:1019300039E060282DD0702807D0B0F5805F03D043
:10194000B0F5005F41D10DE041E0D5E902136A68CE
:10195000206800F060FD2068866846F07706206801
:10196000866034E0D5E902136A68206800F053FD10
:101970002068806840F480402168886027E0EA6839
:101980006968206800F018FE5021206800F04EFDC4
:101990001DE0EA686968206800F021FE6021206887
:1019A00000F044FD13E0EA686968206800F004FE76
:1019B0004021206800F03AFD09E000BF00BF00BFF1
:1019C0002968206800F032FD01E0012700BF00BF58
:1019D000012084F83D0000BF002084F83C0000BFD7
:1019E000384684E710B586B00446142101A8FEF7F6
:1019F0009DFD1149206888421CD100BF0020009045
:101A00000E48006840F001000C4908600846006874
:101A100000F00100009000BF00BF88150190022077
:101A200002900020039004900120059001A9044831
:101A3000FEF7B6FF06B010BD00000140303802408E
:101A4000000002402DE9F04104460D4616460027ED
:101A500000BF94F83C00012802D10220BDE8F081CB
:101A6000012084F83C0000BF36B1042E1BD0082EA4
:101A700031D00C2E5ED145E02946206800F0E0FC14
:101A80002068806940F008002168886120688069CA
:101A900020F0040021688861206880692969084372
:101AA0002168886148E02946206800F0F9FC206838
:101AB000806940F40060216888612068806920F4B2
:101AC00080602168886120688069296940EA012076
:101AD0002168886130E02946206800F015FD206803
:101AE000C06940F008002168C8612068C06920F022
:101AF00004002168C8612068C06929690843216819
:101B0000C86119E02946206800F032FD2068C069EC
:101B100040F400602168C8612068C06920F48060DA
:101B20002168C8612068C069296940EA01202168EC
:101B3000C86101E0012700BF00BF00BF002084F89A
:101B40003C0000BF384689E710B504460CB90120B7
:101B500010BD94F83D0028B9002084F83C002046D0
:101B600000F025F8022084F83D00211D206800F0D7
:101B7000E7FB012084F8460000BF84F83E00012105
:101B80003F200155402001554120015500BF00BFB5
:101B9000012084F84200432001554420015545208E
:101BA000015500BF012084F83D000020D0E77047B8
:101BB00070B504460D4615B994F83E000BE0042DAF
:101BC00002D13F20005D06E0082D02D14020005DDB
:101BD00001E04120005D012801D0012070BD1DB948
:101BE000022084F83E000EE0042D03D102213F20A4
:101BF000015508E0082D03D102214020015502E0E3
:101C000002214120015501222946206800F0F2FB03
:101C10001D492068884201D1012000E0002028B140
:101C20002068406C40F400402168486416492068F0
:101C3000884213D02068B0F1804F0FD0134920683C
:101C400088420BD012492068884207D01149206889
:101C5000884203D01049206888420CD120688068EF
:101C600000F00706062E0CD02068006840F0010046
:101C70002168086005E02068006840F001002168E4
:101C800008600020AAE700000000014000040040B6
:101C900000080040000C00400040014000BFFEE78B
:101CA00008B500F069F8002027490860B0202749EE
:101CB00008804FF4967026490880FEF7E3FA0F215A
:101CC00090FBF1F201FB1200224931F81000224989
:101CD000088064202149088021490880B0202149DA
:101CE00008801D4800882049088020481A231322B4
:101CF000B7EE000A642100903C2000F093FD49F605
:101D00006660CD23B022C8210090002000F028FE9C
:101D10004FF6E070DC23B022CD210090002000F0CF
:101D20001FFE13A001234FF47842CE21009005201E
:101D300000F0F7FD0449098888B24FF478423E214B
:101D400000F025F908BD00001C0500204205002018
:101D500044050020A40B0020460500204805002073
:101D6000320500204A0500204C050020000000201C
:101D700053636F72653A0000002008E000EB8001B9
:101D80009622A2EB4101034A22F81010401C0F28B2
:101D9000F4DB7047A40B002000B587B0142102A823
:101DA000FEF7C4FB00BF002001902B48006840F004
:101DB0008000294908600846006800F08000019012
:101DC00000BF00BF00BF002001900846006840F03F
:101DD000010008600846006800F00100019000BFA3
:101DE00000BF00BF002001900846006840F00200DC
:101DF00008600846006800F00200019000BF00BFC4
:101E0000002250211548FEF7B7FE00220121144898
:101E1000FEF7B2FE502002900120039000200490B3
:101E2000059002A90D48FEF7BBFD0120029003902A
:101E300000200490059002A90948FEF7B1FD4FF477
:101E40007040029000200390049002A90448FEF71D
:101E5000A7FD07B000BD000030380240000002407E
:101E60000004024010B50F480F4908604FF482701B
:101E700048604FF400410C4881600021C16001615D
:101E800041614FF4007181611021C1610021016243
:101E9000416281620A21C162FFF7A8FA08B1FEF728
:101EA000F9FC10BD003001407005002000B595B070
:101EB000002011901290139014900F9010901C21FC
:101EC00008A8FEF733FB20216846FEF72FFB2B48BE
:101ED0002B490860632048600021294881604FF445
:101EE0007A71C1600021016141618161FFF7A6FC47
:101EF00008B1FEF7CFFC4FF48050119011A9204893
:101F0000FFF7EAFC08B1FEF7C5FC1D48FFF71CFE11
:101F100008B1FEF7BFFC00200F9010900FA91848E1
:101F2000FFF73EFC08B1FEF7B5FC602008900020EA
:101F300009900A900B900C900D900E90002208A929
:101F40000F48FFF77FFD08B1FEF7A4FC00200090CA
:101F500001900290039004904FF4005005900020EF
:101F6000079069460648FFF7E1FB08B1FEF792FCCF
:101F70000348FFF737FD15B000BD00000000014029
:101F8000C805002000BFFEE700BFFEE770477CB534
:101F900004460D461646002001904FF6E07005F10C
:101FA0001401CAB20090E8B2DB23CF2100F0D8FCC4
:101FB0000A2C0ADA012004F13001CAB20090E8B21A
:101FC0003346CF2100F0DEFB17E00A2094FBF0F04F
:101FD0003030C0B28DF804000A2094FBF0F100FB11
:101FE00011403030C0B28DF8050001A80090E8B271
:101FF00001233246CF2100F094FC7CBD0146094804
:102000004163806840F08040064A906000BF054808
:10201000006800F002000028F9D00248C06C80B2CD
:10202000704700000020014030B505460023002421
:1020300004E02846FFF7E2FF0344641C122CF8DB9F
:1020400098B2122190FBF1F080B230BD7CB504460D
:102050000E4615463346012202212046009500F027
:1020600039F828B1606D40F02000606503207CBD28
:10207000164800681821B0FBF1F01549B0FBF1F0EB
:102080004FF47A71484301906068B0F5827F0DD1BA
:102090003346002280212046009500F01BF898B1BD
:1020A000606D40F0200060650320E0E700BF01980C
:1020B00000B908E00198401E019020688068C0F3D4
:1020C000C0100028F3D100BF0020D0E76C0500202D
:1020D00040420F002DE9F84F04460D4690461E463B
:1020E000DDF82890FEF74EFDA0EB0900371AFEF749
:1020F00049FD82462C480068C0F3CB3078430090FD
:1021000045E0701C002842D0FEF73CFDA0EB0A0021
:10211000B84200D2A7BB2068406820F0E0002168E8
:1021200048606068B0F5827F0DD1A068B0F5004FBF
:1021300003D0A068B0F5806F05D12068006820F05A
:10214000400021680860A06AB0F5005F0DD100BFB3
:102150002068006820F4005021680860206800684A
:1021600040F400502168086000BF012084F851004D
:1021700000BF002084F8500000BF0320BDE8F88FA6
:10218000FFE7009800B900270098401E00902068E3
:1021900080682840A84201D1012000E0002040458D
:1021A000AFD10020EAE700006C050020704710B5B1
:1021B000FEF7EEFC10BD000000B593B0302107A87B
:1021C000FEF7B4F9142102A8FEF7B0F900BF002011
:1021D00001902448006840F0805022490860084679
:1021E000006800F08050019000BF00BF00BF0020D9
:1021F00001901D48006840F440401B4908600846B3
:10220000006800F44040019000BF00BF022007902A
:1022100001200A9010200B9002200D9000210E91B9
:1022200008210F9164211091022111910421129132
:1022300007A8FEF78DFE08B1FEF72CFB0F200290D9
:1022400002200390002004904FF48050059000205D
:102250000690032102A8FEF761FD08B1FEF71AFB04
:1022600013B000BD403802400070004070B500203F
:102270000022022300240221274D2D6805F00C00C6
:1022800020B1042806D0082834D107E0234D244E7D
:10229000356033E0234D224E35602FE01E4D2D1F5B
:1022A0002D68C5F380541C4D2D1F2D6805F03F018E
:1022B00054B11C4DB5FBF1F5174E361F3668C6F309
:1022C000881605FB06F209E0144DB5FBF1F5124E38
:1022D000361F3668C6F3881605FB06F20E4D2D1F15
:1022E0002D68C5F301456D1C6B00B2FBF3F50C4E78
:1022F000356003E0094D0A4E356000BF00BF064D52
:102300002D68C5F30315084E705D054D2D68C54059
:10231000034E356070BD0000083802400024F40010
:102320006C05002040787D0114CD03080348006847
:1023300040F47000014908607047000088ED00E03B
:1023400010B50268244B98420BD0B0F1804F08D0F2
:10235000224B984205D0224B984202D0214B984202
:1023600003D122F070024B681A431B4B984214D0E1
:10237000B0F1804F11D0194B98420ED0184B9842B3
:102380000BD0184B984208D0174B984205D0174BEA
:10239000984202D0164B984203D122F44072CB6887
:1023A0001A4322F080034C6943EA040202608B68FE
:1023B000C3620B688362084B984201D10B690363C7
:1023C00001234361036903F001031BB1036923F097
:1023D0000103036110BD0000000001400004004043
:1023E00000080040000C0040004001400044014053
:1023F0000048014030B501F01F05012404FA05F33F
:10240000046A9C430462046A01F01F0502FA05F5A0
:102410002C43046230BD30B50C46816821F47F4105
:1024200042EA032525432943816030BD0A4681687D
:1024300021F0700142F007031943816070470000EA
:1024400030B5026A056A25F00105056243688469B2
:1024500024F0700424F003040D682C4322F00202DF
:102460008D682A430D4DA84206D100BF22F0080214
:10247000CD682A4322F00402084DA84207D123F474
:10248000807323F400734D692B438D692B434360A4
:1024900084614D684563026230BD00000000014068
:1024A00030B5026A056A25F0100505624368846943
:1024B00024F4E04424F440740D6844EA052422F036
:1024C00020028D6842EA05120E4DA84207D100BFD6
:1024D00022F08002CD6842EA051222F04002094D46
:1024E000A84209D123F4806323F400634D6943EAD1
:1024F00085038D6943EA8503436084614D68856384
:10250000026230BD0000014030B5026A056A25F460
:10251000807505624368C46924F0700424F00304E4
:102520000D682C4322F400728D6842EA05220F4D9B
:10253000A84207D100BF22F40062CD6842EA05221A
:1025400022F48062094DA84209D123F4805323F478
:1025500000534D6943EA05138D6943EA051343604F
:10256000C4614D68C563026230BD000000000140D7
:1025700030B5036A056A25F4805505624468C2696E
:1025800022F4E04222F440720D6842EA052223F46C
:1025900000538D6843EA0533064DA84204D124F464
:1025A00080444D6944EA85144460C2614D68056405
:1025B000036230BD0000014030B50B461446026A8C
:1025C000056A25F001050562816921F0F00141EA03
:1025D000041122F00A021A438161026230BD30B553
:1025E0000B461446026A056A25F0100505628169EA
:1025F00021F4704141EA043122F0A00242EA0312C0
:102600008161026230BD00BFFEE700000248006841
:10261000C0F30220704700000CED00E010B5002868
:1026200004DB0A07130E054A135406E00A07140ECA
:10263000034A00F00F031B1FD45410BD00E400E058
:1026400018ED00E010B52DED088BB0EE408AF0EEED
:10265000608A0424B0EE489AF0EE689A1FE000BF4A
:10266000B0EE49BAF0EE69BA9FED100B53EC102BA7
:1026700051EC190B01F0EEFB41EC190BB0EE4BAA3B
:10268000F0EE6BAA9FED0B0B53EC102B51EC1A0BD9
:1026900001F04EFAE4D1B0EE489AF0EE689A201EAE
:1026A000A4F10104DBD1BDEC088B10BD00000000DB
:1026B0000000F03F00000000000000002DE9F05F86
:1026C00006460F4691469B46C84653E000244546C1
:1026D0004FEA4800C0F1030A48E07A19D1B2321932
:1026E000D0B25A4600F009F97A19D1B2321BD0B2F1
:1026F0005A4600F002F97A1BD1B23219D0B25A46CA
:1027000000F0FBF87A1BD1B2321BD0B25A4600F06F
:10271000F4F83A19D1B27219D0B25A4600F0EDF875
:102720003A19D1B2721BD0B25A4600F0E6F83A1B01
:10273000D1B27219D0B25A4600F0DFF83A1BD1B2CA
:10274000721BD0B25A4600F0D8F8BAF1000F05DA81
:10275000042000FB04A000F1060A06E0601B04212F
:1027600001FB00A000F10A0A6D1E641CAC42B4DD3E
:10277000A8F101080A98A9EB00004045A6DBBDE8D6
:10278000F09F00002DE9FC5F074688469246994677
:102790000C9CAAF12000019000263CE0019800EB7F
:1027A000800101EBC0001E490844C6F10C0110F87D
:1027B00001B000252CE00120A84000EA0B0030B356
:1027C000012C0AD108EB0602D1B2C5F108023A4445
:1027D000D0B24A4600F091F819E006FB048CA444FC
:1027E0000CF0FF03C5F1080C0CFB047CA4440CF0B6
:1027F000FF0206FB048C0CF0FF01C5F1080C0CFB7A
:10280000047C0CF0FF00CDF8009000F0A9F86D1CDE
:10281000082DD0DB761C0D2EC0DBBDE8FC9F000030
:102820002CCD03082DE9F04F2DED028B81B08046B1
:102830008946B0EE408A93469A46002456E0002529
:1028400051E004FB0A510C9830F8110000900098F8
:10285000B0F5704F00D145E0002639E000272DE0AB
:1028600000EE109AF8EEC00A00EE104AB8EEC00A68
:1028700040EE080A00EE106AB8EEC00A30EE800A98
:10288000BCEEC00A10EE102AD1B200EE108AF8EEAB
:10289000C00A00EE105AB8EEC00A40EE080A00EE78
:1028A000107AB8EEC00A30EE800ABCEEC00A10EE14
:1028B000102AD0B2009A00F020F87F1C00EE107AA7
:1028C000B8EEC00AB4EEC80AF1EE10FAC8D3761C0E
:1028D00000EE106AB8EEC00AB4EEC80AF1EE10FAC3
:1028E000BCD300BF6D1C5545ABDB641C5C45A6DB4F
:1028F00001B0BDEC028BBDE8F08F70B505460E4609
:102900001446701CC3B2681CC2B23146284601F09E
:1029100011F8C4F3072000F0A1FBE0B200F09EFB29
:1029200070BD2DE9F84F0646894617461D46DDF86D
:10293000288005EBC50A00240CE004FB0A6B009517
:1029400018F804200BF0FF003B464946FFF71AFF3A
:10295000641C00BF18F804000028EED1BDE8F88F11
:102960002DE9F84F04460D4616461F46DDF828802F
:10297000C8F3072B08F0FF0000903B46324629467B
:10298000204600F0D7FF002201211148FEF7F4F89D
:102990004FF0000910E04FF0000A07E0584600F041
:1029A0005DFB009800F05AFB0AF1010A301B401C45
:1029B0005045F3DC09F10109781B401C4845EADC6D
:1029C000012211460248FEF7D7F8BDE8F88F000053
:1029D000000402402DE9F843044694F8340300EB68
:1029E000400045004FF44E70005D00EB4000460093
:1029F0004FF6FF70771DFBB26F1DFAB2F1B2009077
:102A0000E8B2FFF7ADFF002726E0D4F82003C01B93
:102A1000C0EB8010D4F8201390FBF1F04FF6FF715B
:102A200001EA401814F8370000EB4000450004EBC1
:102A3000C700007900EB4000460006F1050C0CF0E1
:102A4000FF0305F1050C0CF0FF02F1B2E8B2CDF87E
:102A50000080FFF785FF7F1CD4F82003B842D4DC48
:102A600094F8240300EB400045004FF44A70005DE9
:102A700000EB400046004FF47840771DFBB26F1D1D
:102A8000FAB2F1B20090E8B2FFF76AFFBDE8F8834E
:102A90000CB5D0F82C1301B90CBD064A06CACDE915
:102AA000001200F54071DDE90023C1E90B2300BFEE
:102AB000F2E7000040D203080CB54FF44C710958FE
:102AC00001B90CBD054A06CACDE9001200F54071F6
:102AD000DDE90023C1E90B2300BFF2E748D2030878
:102AE0000CB54FF44C71095801B90CBD054A06CA22
:102AF000CDE9001200F54071DDE90023C1E90B23A7
:102B000000BFF2E750D203080CB5D0F82C1301B97E
:102B10000CBD064A06CACDE9001200F54071DDE998
:102B20000023C1E90B2300BFF2E7000038D20308FD
:102B300010B590B004460520C4F82003264903C907
:102B4000CDE90E01DDE90E01C4E900012249083199
:102B500003C9CDE90C01DDE90C01C4E902011E49FC
:102B6000103103C9CDE90A01DDE90A01C4E9040114
:102B70001949183103C9CDE90801DDE90801C4E9A3
:102B800006011549203103C9CDE90601DDE9060139
:102B9000C4E908011049283103C9CDE9040104F54D
:102BA0004070DDE90412C0E909120B49303103C954
:102BB000CDE9020104F54070DDE90212C0E90B1213
:102BC0004FF6FF70DB23AF22002100900846FFF78D
:102BD000C7FE10B010BD000000D2030870B586B06B
:102BE0000446012541E054F83500216888423BD174
:102BF00004EBC50040686168884235D14FF47840E5
:102C0000DB23AF22002100900846FFF7A9FE1AA09F
:102C100002234FF6FF72322100900020FFF781FE61
:102C200018A101A8D4F82023FDF7DEFB01A8022398
:102C30004FF6FF72502100900020FFF772FE002631
:102C400007E0C8213046FDF7A3FD3220FDF794FED2
:102C50003236B6F57A7FF4DB4FF47A70FDF78CFEEE
:102C60002046FFF765FF04E06D1CD4F82003A8425E
:102C7000B9DC00BF06B070BD596F75206C6F7374FE
:102C80002121210053636F72653A20256400000002
:102C90001CB50446D4E90001CDE900010098D4F840
:102CA0002413884205D14FF44A700059019981429A
:102CB0000FD0D4F82003401E04EBC00104F540708F
:102CC00006C9C0E90D12D4F82003401EC4F8200341
:102CD00002E0204600F032F8D4F8200307E004EBCD
:102CE000C002411E04EBC1030ACB0AC2401E0028E9
:102CF000F5DCD4F82C132068084420604FF44C70A5
:102D000000596168084460602068002801DA1C20CE
:102D100020606068002801DA2320606020681D2898
:102D200001DB002020606068242801DB0020606057
:102D3000D4F82003401CC4F820031CBD2DE9FC413D
:102D4000044600252AE00125FDF79CFA1D2190FB91
:102D5000F1F201FB1206FDF795FA242190FBF1F246
:102D600001FB120700200BE054F83010B14206D1ED
:102D700004EBC0014968B94201D1002504E0401CC0
:102D8000D4F820138142EFDC00BF35B104F5407068
:102D9000CDE90067C0E9096700BF00BF002DD2D0B0
:102DA000BDE8FC8110B54FF480510448FDF7DCFE0E
:102DB00008B9012010BD0020FCE70000000402401B
:102DC00010B54FF400510448FDF7CEFE08B90120BC
:102DD00010BD0020FCE700000004024010B54FF4D5
:102DE00080410448FDF7C0FE08B9012010BD002055
:102DF000FCE700000004024010B54FF40041044815
:102E0000FDF7B2FE08B9012010BD0020FCE700006C
:102E10000004024010B5012211461148FDF7ACFE36
:102E2000002240210F48FDF7A7FE012210210D4886
:102E3000FDF7A2FE002210210A48FDF79DFE9FED3E
:102E40000A0BFFF7FFFB012210210648FDF794FE55
:102E50009FED050BFFF7F6FB00F00AF810BD000030
:102E600000040240000002400000000000407F40DB
:102E700010B50021102000F00BF90021112000F006
:102E800007F90021122000F003F90021132000F0BF
:102E9000FFF80021142000F0FBF89FED5F0BFFF717
:102EA000D1FB4FF6FF71112000F0F2F84FF4E04132
:102EB000122000F0EDF86F21132000F0E9F844F63D
:102EC0005F11142000F0E4F84FF47061102000F05E
:102ED000DFF89FED510BFFF7B5FB4FF6FF711120A7
:102EE00000F0D6F89FED4E0BFFF7ACFB4FF48E7160
:102EF000012000F0CDF84FF48071022000F0C8F8F6
:102F000041F23001032000F0C3F80021072000F057
:102F1000BFF840F20221082000F0BAF800210B208F
:102F200000F0B6F800210C2000F0B2F840F6017174
:102F30000F2000F0ADF80021152000F0A9F80021C5
:102F4000202000F0A5F80021212000F0A1F80021A8
:102F5000302000F09DF8DB21312000F099F80021AD
:102F6000322000F095F80021332000F091F8DB21A9
:102F7000342000F08DF80021352000F089F8AF21D1
:102F8000362000F085F80021372000F081F8DB21A1
:102F9000382000F07DF80021392000F079F8002178
:102FA000502000F075F840F60801512000F070F84C
:102FB00040F60A01522000F06BF80A21532000F07D
:102FC00067F840F60821542000F062F840F6080146
:102FD000552000F05DF80021562000F059F84FF41C
:102FE0002061572000F054F84FF4E261582000F0BF
:102FF0004FF84FF4E261592000F04AF812210720FF
:1030000000F046F89FED060BFFF71CFB41F217019D
:10301000072000F03DF810BD000000000000244033
:10302000000000000000494010B504460022402185
:103030000848FDF7A1FD002201210748FDF79CFD8E
:10304000204600F0B1FC012211460348FDF794FD33
:1030500010BD0000000002400004024010B504460C
:10306000002201210848FDF787FD01224021074881
:10307000FDF782FD204600F097FC01221146024830
:10308000FDF77AFD10BD0000000402400000024080
:1030900070B504460D46C4F30720FFF7C5FFE0B244
:1030A000FFF7C2FFC5F30720FFF7D8FFE8B2FFF72D
:1030B000D5FF70BD2DED048B82B0FDF775FDFFF7D8
:1030C0007BF8FFF7D3F8FEF767FEFEF7CBFEFEF7BF
:1030D000EDFEFDF707FB0021F648FEF769FDF64817
:1030E000FFF726FDFFF796FE4FF6FF70DC23B022B8
:1030F000002100900846FFF733FCF0A002239A035A
:10310000372100900F20FFF70CFCEEA002231F22B6
:103110005A2100903C20FFF704FCEBA0022340F270
:10312000EF327D2100901E20FFF7FBFB4FF4FA6089
:10313000FDF722FC4FF6FF70DC23B0220021009047
:103140000846FFF70DFCBAE3FFF748FE58B14FF60B
:10315000FF70DC23B022002100900846FFF700FC3E
:103160000120DB490860FFF72BFE00284BD000242C
:103170001FE0D84830F81400FA2191FBF0F085B236
:10318000D54931F814002946FDF702FB284600F026
:103190004FFD41EC190B9FEDD10B53EC102B00F0C0
:1031A0005BFD41EC180B00F0FFFC0646FDF7E4FB6D
:1031B000641C192CDDD3002423E0CA4830F8140025
:1031C0004FF4FA6191FBF0F5C74830F8140028B1CC
:1031D000C54931F814002946FDF7DAFA284600F00F
:1031E00010FD41EC190B9FEDBD0B53EC102B00F0C3
:1031F00033FD41EC180B00F0D7FC0646FDF7BCFB95
:10320000641C2F2CD9D3B2480068012875D1B7A00F
:1032100001234FF47842142100902320FFF781FB13
:10322000B6A001234FF47872372100902320FFF7D6
:1032300078FBB5A001234FF478725A210090232027
:10324000FFF76FFBB2A001234FF478727D2100904D
:103250002320FFF766FB0220FEF7E6FEAE4908805A
:103260000846008840F6B831884211DDAB48006856
:1032700070B90120A9490860A9480088401CA849E4
:10328000088008460088032811DD012008800EE030
:10329000A148008840F6C411884208DA9E48008898
:1032A00040F2DC51884202DD00209C4908609A48C7
:1032B0000088B0F57A7F10DA9848006868B9012074
:1032C0009649086096480088401E9549088008463F
:1032D0000088012801DA03200880FFF78DFD00280F
:1032E00069D001208F4908608D480088012805D0E9
:1032F000022815D003285CD124E0C3E04FF6FF700C
:10330000DC23B022002100900846FFF729FB0020B3
:103310006F4908608449086001208449086048E0DA
:103320004FF6FF70DC23B022002100900846FFF723
:1033300017FB0020664908607C49086001207A4933
:10334000086036E04FF6FF70DC23B02200210090C9
:103350000846FFF705FB7648B023DC22B7EE000AEB
:10336000002100900846FFF75DFA4FF47A70FDF7F0
:1033700003FB7048B023DC22B7EE000A0021009066
:103380000846FFF74FFA4FF47A70FDF7F5FA6A48EE
:10339000B023DC22B7EE000A002100900846FFF7B8
:1033A00041FA00204A490860604908605E490860A7
:1033B00000BF00BF83E25848008840F2DC518842D9
:1033C00002DD00205749086055480088012804D0D4
:1033D00002281ED0032854D137E002204FF6FF7395
:1033E00005225F2100901420FFF768F902204FF6B4
:1033F000FF730522822100901420FFF75FF902205D
:1034000040F2FF7305223C2100901420FFF756F98B
:1034100037E002204FF6FF7305223C210090142074
:10342000FFF74CF902204FF6FF730522822100902E
:103430001420FFF743F9022040F2FF7305225F21B9
:1034400000901420FFF73AF91BE002204FF6FF73BB
:1034500005223C2100901420FFF730F902204FF69E
:10346000FF7305225F2100901420FFF727F9022047
:1034700040F2FF730522822100901420FFF71EF90D
:1034800000BF1BE22848006898B10120FEF7CCFD80
:103490002A4908800220FEF7C7FD1F4908802748F7
:1034A000008840F6FC0188424ADD0348FFF704FB30
:1034B0004EE06CE0C80500201006002063616C6CD3
:1034C000206D6500697320006C616E20616E68007C
:1034D0000C0500200E040020DC030020CDCCCCCC59
:1034E000CCCCF43F9E0400204004002043686F735E
:1034F000696E675F67616D6500000000466C617012
:103500007079204269726400536E616B650000003F
:10351000696D616765000000FE040020040500205D
:1035200000050020080500201005002014050020DB
:1035300034400008B46E0108349D0208FC040020E9
:10354000DF480088B0F57A7F02DADE48FFF7C8FA74
:10355000DD48008840F6C411884203DDD948FFF7F2
:1035600097FA07E0D8480088B0F57A7F02DAD548A4
:10357000FFF7CAFAD348FFF78BFBD248FFF72EFBC1
:10358000D048FFF727FA9620FDF7F6F996E1CF48E5
:1035900000680028FAD04FF6FF70DC23B02200212B
:1035A00000900846FFF7DCF9C9A001234FF47842E8
:1035B000502100902820FFF7B4F9C8A0012340F261
:1035C000FF72822100901420FFF7ABF9FFF7EAFBAE
:1035D0000028DBD04FF496714FF45C70FDF7D8F8FB
:1035E0006420FDF7C9F9FFF7DDFBC148006818B199
:1035F000FFF7D8FB0028C9D1BE480068BE49086063
:103600000020BE490860FEF74BFB4FF6FF70C82351
:10361000B022002100900846FFF7A2F9B6480068E2
:10362000B749098888420ADDB3480088B449088050
:103630004AF245129621B2480088FEF7A8FC3BE109
:10364000B048B0F90000801EAF490860AD48B0F93D
:1036500000001630AD490860AD48008846280ED1FC
:10366000B020AC490880FCF70DFE0F2190FBF1F271
:1036700001FB1200A84931F81000A8490880A548AC
:10368000008846280ED1B020A1490880FCF7FAFD39
:103690000F2190FBF1F201FB12009F4931F810005D
:1036A0009F4908809E4801889948B0F90000FDF7BD
:1036B000B8F89A4801889748B0F90000FDF7B1F8CA
:1036C000FFF770FB70B1C8214FF45C70FDF760F834
:1036D0008C480088C01E00B28A49088001208749B2
:1036E000086008E08548006828B186480088001D09
:1036F00000B2844908808348B0F90000B42803DB95
:10370000B4208049088007E07E48B0F90000002816
:1037100002DC00207B4908807D48B0F90000462883
:1037200009DD7B4800887F4908807D480088401E6D
:103730007D49088008E0774800887A490880774802
:103740000088401E784908806F480068022803DD21
:103750006E480068C62819DB01206549086000240E
:1037600007E0C8212046FDF713F83220FDF704F9E1
:103770003234B4F57A7FF4DB5D480068012805D166
:10378000FDF78CF800205A49086096E06048B0F9CF
:1037900000006649096888422EDC5D48B0F90000E7
:1037A000283063490968884226DB574800685C492D
:1037B0000988884206DD554801685948008841302B
:1037C000814219DB01204A490860002407E0C82132
:1037D0002046FCF7DDFF3220FDF7CEF83234B4F599
:1037E0007A7FF4DB42480068012805D1FDF756F8DE
:1037F00000203F49086060E04648B0F900004B49AE
:10380000096888422EDC4348B0F900002830484956
:103810000968884226DB3C4800684049098888429C
:1038200006DD3A4801683D4800884130814219DB95
:1038300001202F490860002407E0C8212046FCF73A
:10384000A7FF3220FDF798F83234B4F57A7FF4DB25
:1038500027480068012805D1FDF720F800202449F9
:1038600008602AE02A480088282803D029480088D0
:1038700028280AD11F480068401C1E490860098892
:1038800088B21F223E21FEF782FB1C48006880B1EF
:103890001C49098888B2FCF75BFF1D480088801E20
:1038A00000B21B4908801B480088801E00B21949DD
:1038B00008800520FDF760F8C2E600BF00BF43E4C2
:1038C000FC04002010060020FE0400201405002047
:1038D000464C415050595F424952440070726573E2
:1038E000732074686520627574746F6E0000000048
:1038F0003C0500201C050020380500203405002070
:103900004005002032050020580500205C050020FD
:103910004205002044050020A40B0020480500209B
:10392000460500204A0500204C05002054050020D3
:10393000500500201FB59DF808009DF80010884232
:1039400003DA694602A800F039F89DF80C009DF8EA
:103950000410884203DA01A903A800F02FF89DF8AB
:1039600008103620FFF794FB9DF800103720FFF772
:103970008FFB9DF80C103820FFF78AFB9DF8041090
:103980003920FFF785FB9DF800102020FFF780FB12
:103990009DF804102120FFF77BFB0020FFF744FB7C
:1039A0002220FFF741FB1FBD01B5642301226946B8
:1039B0000148FDF7C3FD08BD700500200A780378B3
:1039C0000B7002707047000010B591EA030F48BFFA
:1039D00083F0004300F14682841A71EB030C05D298
:1039E000121943EB0C03001B61EB0C01DFF824E11F
:1039F0004FEA1154A4EB135C1EEA430F18BF9EEA72
:103A0000445F73D023EA0E03DCF1200E21EA045157
:103A100043F4801332D322FA0CFE10EB0E0023FA8B
:103A20000CFE41EB0E01CCF1200E03FA0EFE10EB62
:103A30000E0051F10001B1F5801FCCF1200E32D201
:103A400001EB045112FA0EF2BDE8104058BF704766
:103A5000401C38BF5FEA420218BF7047002814BFFD
:103A600020F0010041F100014FEA410313F5001F6E
:103A700038BF7047A1F1C04100F0E6B9012A43EB1D
:103A80000302ACF1200CDCF11F0E32BF4FF0000E30
:103A900023FA0CF310EB030041EB0451B4EB115F7C
:103AA000D0D0A1EB045101F5801149085FEA300044
:103AB00001EB04510ED350F1000038BF12FA0EFE94
:103AC00008D1BDE81040C9E7401C38BF5FEA420298
:103AD000CAD1C3E7BDE810404FEA410313F5001F08
:103AE00038BF7047A1F1C04100F0AEB99EEA445F13
:103AF00008D011EA5E0FBDE8104004BF01F000419C
:103B000000207047BDE8104070B500F04FF900BFCD
:103B100064FBBE3E0000E0FF491058BFC1F14041C8
:103B20005B1058BFC3F140438B42EFF300807047F6
:103B300051EA030C17D41CF5801F58BFBCF5801F39
:103B400000F10680994218BF704708BF9042704745
:103B500007D711F5801F58BF13F5801F19D499425C
:103B60007047894270471CF5801F08D5BCF5801F3F
:103B7000F7D58B4218BF704708BF824270474FF499
:103B8000001C1CEB410F38BF1CEB430F01D28B42D2
:103B9000704770B500F00AF9922449004FF00051C7
:103BA0004FF08053FFF7B8BF4FEA1153A3F580637E
:103BB000D3F11E03A8BFD3F1200C08DB4FF0004265
:103BC00042EAC12252EA505232FA03F070470942E7
:103BD0000BD4102BC4BF0020704703F5787CBCF1D8
:103BE000FF3F05D04FF0FF3070474FF000007047A7
:103BF00070B500F0DBF800BF4992248000207047C8
:103C0000F0E710F0004248BF4042B0FA80F310FAEB
:103C100003F10AD0C3F11D0303F580634FEA41505D
:103C200002EB035202EBD12170474FF000007047C6
:103C3000B0FA80F310FA03F10AD0C3F11D0303F5C3
:103C400080634FEA41504FEA035202EBD1217047A3
:103C50004FF0000070470000DFF848C170B51CEA63
:103C6000111E1EBF1CEA13159EEA0C0F95EA0C0FDD
:103C700000F06F8081EA030423EA4C134EEAD47EFD
:103C800021EA4C1141F4801143F48013AE44A1FBAE
:103C9000024CA0FB0365AEF17F7E361955EB0C0597
:103CA000A1FB034C4CF10003A0FB021C16EB0C061D
:103CB000654153F10003094218BF46F0010613F4B1
:103CC000007F0BD14FEA03314FEA0530340341EA5C
:103CD000155140EA16506FF003020AE04FEAC32183
:103CE0004FEAC520F40241EA555140EA56506FF0C0
:103CF000020202EB2E4201EB025585EACE710AD098
:103D00005FEA440C18BF24F0004450F1000041F178
:103D1000000120EAD47040F2FE7C624500D270BD02
:103D2000A84214BF4FF080444FF04044002E08BF1B
:103D30000024BEF1806FA8BFA1F1C041BDE8704072
:103D400080F282804FF0000001F1C04101F000419B
:103D500070479EEA0C0F0CEA131518BF95EA0C0F7A
:103D600006D04FF0000081EA030E0EF0004170BD56
:103D700000F01CF88900013E00F007B800F009B817
:103D80004FEA430C5FEA5C5C08D081EA030100F073
:103D90005BB84FEA410C5FEA5C5CF6D14FF0000083
:103DA000014970470000FF070000F87F0EF1020E86
:103DB0002EF0030E5EF8046B364205D4012A43EB65
:103DC000030515F5001F12D8012841EB010C1CF565
:103DD000001F0CD80ED14FEAD17C15F5001F0CEB5B
:103DE0004C0C0CF1020C08BF4CEBD37C04E04FF000
:103DF000080C01E04FEAD37C0CEB4C0526FA05F6E3
:103E000006F00706B6F1040C06D20EEB860CBDE8F0
:103E100070404CF0010C6047DFE80CF0090B020227
:103E20004FF000414FF00000A1F5002170BD194690
:103E30001046012851EB010418BFD4F5001484BFCB
:103E4000002001F0004170BD0808A0F500114FEA04
:103E50003101704710B591EA030F48BF83F000436A
:103E60003FF5BAAD841A71EB030C07D212198CF02E
:103E7000004C43EB0C03001B61EB0C01DFF8A4E1E9
:103E80004FEA1154A4EB135C1EEA430F18BF9EEADD
:103E9000445F00F0B08023EA6E03524221EA0451ED
:103EA000C3EB6E0338BF5B1EDCF1200E25D322FA74
:103EB0000CFE10EB0E0043FA0CFE41EB0E01CCF1B0
:103EC000200E03FA0EFE10EB0E0051F10001CCF1B2
:103ED000200E29D412FA0EF201EB0451BDE8104075
:103EE00058BF7047401C1CBFB2F1004F70470028FC
:103EF0000CBF491C20F00100704712EB020E43EB8F
:103F0000030218BF4FF0010E4EEA4202ACF1200C42
:103F1000DCF11E0E54D943FA0CFE10EB0E0051F1E9
:103F2000FF31CCF11E0ED5D50EF1010E12FA0EFEA8
:103F3000404141EB010101EB445C5FEA5C5C10D95C
:103F400010EBDE7001EB045138BFBEF1004FBDE84D
:103F5000104018BF704700280CBF491C20F001001A
:103F6000704730D24FEAD42C11F5001124F40064CC
:103F70001BD0B1FA81F20B3AA41AA41ED2F120038D
:103F8000914030FA03F31943904001EBCC71002CBF
:103F900001EB0451BDE81040A8BF704701F1C041DA
:103FA0004FF0000001F000417047B0FA80F310FAC2
:103FB00003F100D110BDE41A173C4805C90AE4E733
:103FC00001EB045110BD491001EB0451BDE8104054
:103FD0004FEA300002E04FF0000170474A0008BF8E
:103FE0000042F8D0B2F5001F28BF704701F0004131
:103FF0004FF0000070479EEA445F07D011EA5E0F61
:10400000BDE8104004BF002100207047BDE810400B
:1040100070B5FFF7CBFE00BF40DFF63E83F00041F6
:10402000104670470000E0FF4FF04070E1EE100ACC
:1040300070470000019801980098019800A000982E
:1040400001A001A021B821A822C042B842C842C0A4
:1040500042C842C842C842C842C842C842C842C810
:1040600042D042C842D042C842D042D042D042D0D0
:1040700042D842D042D842D862D862D862D862D8F8
:1040800062D862D862E062E062E062E062E062E030
:1040900062E062E062E062E062E062E062E062E010
:1040A00062E062E062D862E021B842D001B001B0C3
:1040B00021B001B021B021B021B021B021A821B0A0
:1040C00021A821A821A821A821A821A821A821B0A0
:1040D00021A821A801A821A801A801A801A001A840
:1040E00001A001A001A001A000A001A001A001A0C9
:1040F00021B001A022B822B822B822B822B822B832
:1041000022B822B802C022B802C002C002C002C057
:1041100002C002C002C002C002C002C002C002C08F
:1041200001C002C002C002C002C002C002C002C080
:1041300001C002C001C001C002C002C002C002C072
:1041400002C002C002C002C002C002C0009801B09A
:104150000198019801980198019801980198019897
:104160000198019801980198019801980198019887
:104170000198019801980198019801980198019877
:104180000198019801980198019801980198019867
:1041900062980198019801980098019800980098F9
:1041A00001A001A001A001A001A801A021B821B097
:1041B00042C841C042C842C842C842C842C842C8B8
:1041C00042C842C842D042C842D042D042D042D077
:1041D00042D042D062D862D862D862D862D862D85F
:1041E00062D862D862E062E062E062E062E062E0CF
:1041F00062E062E062E062E062E062E062E062E0AF
:1042000062D062D821B841C021A821B021B021B02C
:1042100021B021B021B021B021B021B021A801B03E
:1042200021A821A821A821A821A821A801A821A866
:1042300001A821A801A801A801A801A801A001A026
:1042400001A001A001A001A0009801A001A801A067
:1042500022B821B022B822B822B822B822B822B897
:1042600022B822B802C022B802C002C002C002C0F6
:1042700002C002C002C002C002C002C002C002C02E
:1042800001C002C002C002C002C002C002C002C01F
:1042900001C002C001C001C002C002C002C002C011
:1042A00002C002C002C002C002C002C001A802C017
:1042B0000198019801980198019801980198019836
:1042C0000198019801980198019801980198019826
:1042D0000198019801980198019801980198019816
:1042E0000198019801980198019801980198019806
:1042F0006298019801980198009801980098009898
:1043000001A0019801A001A001A001A001A000A0AE
:1043100021B001A842C022B842C842C842C842C81F
:1043200042C842C842D042D042D042D042D842D005
:1043300042D842D862D862D862D862D862D862D8ED
:1043400062D862D862E062E062E062E062E062E06D
:1043500062E062E062E062E062D862E042C062D0A5
:1043600001B021B821A821A821B001B021B021B00D
:1043700021B021A821A821B001B001B021A801B02D
:1043800021A821A821A821A821A821A801A821A805
:1043900001A801A801A801A801A801A801A001A0E5
:1043A00001A001A001A001A001A001A022B821B09C
:1043B00022B822B822B822B822B822B822B822B82D
:1043C00022B822B802C022B802C002C002C002C095
:1043D00002C002C002C002C002C002C002C002C0CD
:1043E00001C002C002C002C002C002C002C002C0BE
:1043F00001C002C001C001C002C001C002C002C0B1
:1044000002C002C002C002C002C002C001A802C0B5
:1044100001980198019801980198019801980198D4
:1044200001980198019801980198019801980198C4
:1044300001980198019801980198019801980198B4
:1044400001980198019801980198019801980198A4
:104450006298019801980198019801980098019834
:1044600000A0009801A001A001A001A001A001A04E
:1044700001A001A001A801A021B021A842C021C033
:1044800062C842C842D042D042D042D062D842D064
:1044900062D862D862D862D862D862D862D862D84C
:1044A00062D862D862E062D862E062E062E062E014
:1044B00062D862E042C842D001B821C001A801B070
:1044C00001A821A801B001B021A801B001B001B03C
:1044D00001B001B001B001B001B001B021B001B034
:1044E00021B001B021B021B021A821A801A821A8A4
:1044F00001A801A801A801A801A001A001A001A094
:1045000001A001A001A001A022B001A822B822B8F8
:1045100022B822B822B822B822B822B822B822B8CB
:1045200022B822B822B822B802C022C002C002C0FB
:1045300002C002C002C002C002C002C002C002C06B
:1045400001C002C002C001C002C002C002C002C05D
:1045500001C002C001C001C002C001C002C002C04F
:1045600002C002C002C002C002C002C001A002C05C
:104570000198019801980198019801980198019873
:104580000198019801980198019801980198019863
:104590000198019801980198019801980198019853
:1045A0000198019801980198019801980198019843
:1045B00062980198019801980198019801980198D2
:1045C0000098009801A001A001A001A001A001A0F5
:1045D00001A001A001A001A001A001A001A001A8CB
:1045E00001B001A841B821B022C822C042D042C8BF
:1045F00042D042D062D862D862D862D862D862D83B
:1046000062D862D862D862D842D042D022C022C8D2
:1046100021A821B801A801A821A821A821A801A8A2
:1046200021A821A801B001B001B001B001B001B0D2
:1046300001B001B001B001B001B001B021A801B0DA
:1046400001A821A821A801A801A801A801A801A8E2
:1046500001A801A801A801A801A001A001A001A032
:1046600001A001A021A801A022B822B822B822B836
:1046700022B822B822B822B822B822B822B822B86A
:1046800022B822B822B822B802C022C002C002C09A
:1046900002C002C002C002C002C002C002C002C00A
:1046A00002C002C002C001C002C002C002C002C0FB
:1046B00002C002C001C001C002C001C002C002C0ED
:1046C00002C002C002C002C002C002C0009802C004
:1046D0000198019801980198019801980198019812
:1046E0000198019801980198019801980198019802
:1046F00001980198019801980198019801980198F2
:1047000001980198019801980198019801980198E1
:104710006298019801980198019801980198019870
:104720000098009801A0009801A001A001A001A09C
:1047300001A001A001A001A001A001A001A801A069
:1047400001A001A001A801A001A801A801A801A839
:1047500021A801A821B021B021B021B001B821B811
:1047600021B021B021A801B001A801A821A821A849
:1047700001A801A001A801A801A821A821A801A8B9
:1047800021A821A801B001B001B001B001B001B071
:1047900001B001B001B001B001B001B021A801B079
:1047A00021A821A801A801A801A801A801A801A881
:1047B00001A801A801A001A801A001A001A001A0D9
:1047C00001A001A022B821A822B822B822B822B89C
:1047D00022B822B822B822B822B822B822B822B809
:1047E00022B822B822B822B802C022C002C002C039
:1047F00002C002C002C002C002C002C002C002C0A9
:1048000001C002C002C001C002C002C002C002C09A
:1048100002C002C001C001C002C001C002C002C08B
:1048200002C002C002C002C002C002C0009801B8AB
:1048300001980198019801980198019801980198B0
:1048400001980198019801980198019801980198A0
:104850000198019801980198019801980198019890
:104860000198019801980198019801980198019880
:10487000629801980198019801980198019801980F
:104880000098019801A0009801A001A001A001A03A
:1048900001A001A001A001A001A001A001A001A010
:1048A00001A001A001A801A001A801A801A801A8D8
:1048B00001A801A801A801A801A001A801A801A0C0
:1048C00001A801A801A801A802A801A801A801A89F
:1048D00001A801A801A801A801A801A801A801A890
:1048E00001A801A821A821A821A821A821A821A8C0
:1048F00021A821A821A821A801A821A821A821A890
:1049000001A801A801A801A801A801A801A801A85F
:1049100001A801A801A001A001A001A001A001A07F
:1049200021B001A822B842B822B842B822B822B8B1
:1049300022B822B822B822B822B822B822B822B8A7
:1049400022B822B822B822B802C022B802C002C0DF
:1049500002C002C002C002C002C002C002C002C047
:1049600001C002C002C001C002C002C002C002C039
:1049700001C002C001C001C002C001C002C002C02B
:1049800002C002C002C002C002C002C0019801B849
:10499000019801980198019801980198019801984F
:1049A000019801980198019801980198019801983F
:1049B000019801980198019801980198019801982F
:1049C000019801980198019801980198019801981F
:1049D00062980198019801980198019801980198AE
:1049E00001980198009801A001A001A001A001A0D8
:1049F00001A001A001A001A001A001A001A001A0AF
:104A000001A001A001A001A001A801A001A801A886
:104A100001A801A801A801A801A801A801A801A84E
:104A200001A801A801A801A801A801A801A801A83E
:104A300001A801A801A801A801A801A801A801A82E
:104A400001A821A801A801A801A801A821A821A8BE
:104A500021A821A801A801A821A801A821A801A88E
:104A600001A801A801A801A801A801A801A801A8FE
:104A700001A001A801A001A001A001A001A801A01E
:104A800022B822B022B822B822B822B822B822B85E
:104A900022B822B822B822B822B822B822B822B846
:104AA00022B822B822B822B822C022B802C002C05E
:104AB00002C002C002C002C002C002C002C002C0E6
:104AC00001C002C002C001C002C002C002C002C0D8
:104AD00001C002C001C001C002C001C002C002C0CA
:104AE00002C002C002C002C002C002C0019801B0F0
:104AF00001980198019801980198019801980198EE
:104B000001980198019801980198019801980198DD
:104B100001980198019801980198019801980198CD
:104B200001980198019801980198019801980198BD
:104B3000629801980198019801980198019801984C
:104B4000019801980098019801A001A001A001A07E
:104B500001A001A001A001A001A001A001A001A04D
:104B600001A001A001A001A001A001A001A801A82D
:104B700001A801A801A801A801A801A801A801A8ED
:104B800001A801A801A801A801A801A801A801A8DD
:104B900001A801A801A801A801A801A801A801A8CD
:104BA00001A801A801A801A801A801A801A801A8BD
:104BB00001A801A801A801A801A801A801A801A8AD
:104BC00001A801A801A801A801A801A801A801A89D
:104BD00001A001A001A001A001A001A042B001A874
:104BE00022B822B822B822B822B822B822B822B8F5
:104BF00022B822B822B822B822B822B822B822B8E5
:104C000022B822B822B822B822C022B802C002C0FC
:104C100002C002C002C002C002C002C002C002C084
:104C200001C002C002C001C002C002C002C002C076
:104C300002C002C001C001C002C001C002C002C067
:104C400002C002C002C002C002C002C0019801A896
:104C5000019801980198019801980198019801988C
:104C6000019801980198019801980198019801987C
:104C7000019801980198019801980198019801986C
:104C8000019801980198019801980198019801985C
:104C900062980198019801980198019801980198EB
:104CA000019801980098019801A0019801A001A025
:104CB00001A001A001A001A001A000A001A001A0ED
:104CC00001A001A001A001A001A001A001A801A0D4
:104CD00001A801A801A801A801A801A801A801A88C
:104CE00001A801A801A801A801A801A801A801A87C
:104CF00001A801A801A801A801A801A801A801A86C
:104D000001A801A801A801A801A801A801A801A85B
:104D100001A801A801A801A801A801A801A801A84B
:104D200001A801A801A801A801A801A801A001A04B
:104D300001A001A001A001A001A801A042B842B0B9
:104D400022B842B822B822B822B822B822B822B873
:104D500022B822B822B822B822B822B822B822B883
:104D600022B822B822B822B822B822B802C002C0A3
:104D700002C002C002C002C002C002C002C002C023
:104D800001C002C002C001C002C002C002C002C015
:104D900002C002C001C001C002C001C002C002C006
:104DA00002C002C002C002C002C002C0019801A03D
:104DB000019801980198019801980198019801982B
:104DC000019801980198019801980198019801981B
:104DD000019801980198019801980198019801980B
:104DE00001980198019801980198019801980198FB
:104DF000629801980198019801980198019801988A
:104E000001980198019801980098009800A000A0CE
:104E100000A000A001A001A001A001A001A001A08C
:104E200001A001A001A001A001A001A001A001A07A
:104E300001A001A801A801A001A001A001A001A05A
:104E400001A801A801A001A801A001A001A001A042
:104E500001A001A001A801A821A801A821A821A8BA
:104E600021A821A801A801A801A801A801A801A8BA
:104E700001A801A801A801A801A801A821A801A8CA
:104E800021A821A801A821A801A001A001A001A09A
:104E900001A001A001A001A042B021A842B842B8DF
:104EA00022B842B842B842B822B822B822B822B8D2
:104EB00022B822B822B822B822B822B822B822B822
:104EC00022B822B822B822B822B822B802C002C042
:104ED00002C002C002C002C002C002C002C002C0C2
:104EE00002C002C001C002C002C002C002C002C0B3
:104EF00002C002C001C001C001C001C002C002C0A6
:104F000002C002C002C002C002C002C001980198E3
:104F100001980198019801980198019801980198C9
:104F200001980198019801980198019801980198B9
:104F300001980198019801980198019801980198A9
:104F40000198019801980198019801980198019899
:104F50006298019801980198019801980198019828
:104F6000019801980198019800980098009800A075
:104F700000A000A001A001A001A801A001B001A80B
:104F800001B001B001B801B801B801B801C001C059
:104F900001B801C001B801B801B001B000A801B06A
:104FA00001A001A001A001A001A001A001A001A0F9
:104FB00001A001A001A001A001A801A001A801A8D1
:104FC00001A801A801A801A801A801A801A801A899
:104FD00001A801A801A801A801A801A801A801A889
:104FE00001A801A801A001A801A001A001A001A0A1
:104FF00001A001A001A801A022B842B042B842B865
:1050000042B842B842B822B022B822B822B822B878
:1050100022B822B822B822B822B822B822B822B8C0
:1050200022B822B822B822B822B822B802C002C0E0
:1050300002C002C002C002C002C002C002C002C060
:1050400002C002C001C002C002C002C002C002C051
:1050500002C002C001C001C001C001C002C002C044
:1050600002C002C002C002C002B802C0019800988B
:105070000198019801980198019801980198019868
:105080000198019801980198019801980198019858
:105090000198019801980198019801980198019848
:1050A0000198019801980198019801980198019838
:1050B00062980198019801980198019801980198C7
:1050C00001980198019801980098009801A000A00B
:1050D00001B001B001B801B801C001C001C001C0F8
:1050E00001C801C801C801C001C801C801C801C880
:1050F00001C821C801C801C821C801C801C021C810
:1051000001B821C001A801B001A001A801A001A01F
:1051100001A001A001A001A001A001A001A001A087
:1051200001A001A001A801A801A801A801A801A847
:1051300001A801A801A801A801A801A801A801A827
:1051400001A001A001A001A001A001A001A001A057
:1051500001A001A042B001A842B842B842B842B88A
:1051600042B042B042B822B022B822B822B822B827
:1051700022B822B822B822B822B822B822B822B85F
:1051800022B822B822B822B822B822B802C002C07F
:1051900002C002C002C002C002C002C002C002C0FF
:1051A00002C002C001C002C002C002C002C002C0F0
:1051B00002C002C001C001C001C001C002C002C0E3
:1051C00002C002C002C002C001B802C0019800982B
:1051D0000198019801980198019801980198019807
:1051E00001980198019801980198019801980198F7
:1051F00001980198019801980198019801980198E7
:1052000001980198019801980198019801980198D6
:105210006298019801980198019801980198019865
:105220000198019801A000A001B801A801C001C027
:1052300001C001C001C001C001C001C001C001C066
:1052400001C001C001C001C021C801C821C801C8F6
:1052500021C821C821C821C821C821C801C801C846
:1052600021C821C801C001C021B021C001A001A8EE
:1052700001A001A001A001A001A001A001A001A026
:1052800001A001A001A801A001A801A801A801A8EE
:1052900001A801A801A801A801A001A801A001A0DE
:1052A00001A001A001A001A001A001A001A001A0F6
:1052B00001A801A042B842B042B842B842B842B8D0
:1052C00042B842B842B842B822B842B822B822B86E
:1052D00022B822B822B822B822B822B822B822B8FE
:1052E00022B822B822B822B822B822B802B802C026
:1052F00002C002C002C002C002C002C002C002C09E
:1053000002C002C002C002C002C001C002C002C08E
:1053100002C002C002C002C001C001C002C002C07F
:1053200002C002C002C002C001B001C001980198D1
:1053300001980198019801980198019801980198A5
:105340000198019801980198019801980198019895
:105350000198019801980198019801980198019885
:105360000198019801980198019801980198019875
:1053700062980198019801980098009801A00098FF
:1053800001B801A801C001C001C801C801C001C025
:1053900001C001C001C001C001C001C001C001C005
:1053A00001C001C001C001C001C001C801C801C0E5
:1053B00021C821C821C821C821C821C801C821C8C5
:1053C00021C821C801C021C801C001C001B802C064
:1053D00001A001A801A001A001A001A001A001A0BD
:1053E00001A001A001A001A001A001A001A001A0B5
:1053F00001A001A001A001A001A001A001A001A0A5
:1054000001A001A001A001A001A001A001A001A094
:1054100022B001A042B842B842B842B842B842B83D
:1054200042B842B842B842B822B842B822B822B80C
:1054300022B822B822B822B822B822B822B822B89C
:1054400022B822B822B822B802B822B802B802B8EC
:1054500002C002C002C002C002C002C002C002C03C
:1054600002C002C002C002C002C001C002C002C02D
:1054700002C002C002C002C001C001C002C002C01E
:1054800002C002C002C002C001B001C00198019870
:105490000198019801980198019801980198019844
:1054A0000198019801980198019801980198019834
:1054B0000198019801980198019801980198019824
:1054C0000198019801980198019801980198019814
:1054D000629801980198019801B001A001C001B83B
:1054E00001C001C001C001C801C001C001C001C0AC
:1054F00001C001C001C001C001C001C001C001C0A4
:1055000001C001C001C001C001C001C001C001C093
:1055100001C801C821C821C801C821C801C801C8E3
:1055200021C821C801C821C801C001C022C002C0D1
:1055300022B022B801A801A801A001A001A001A0E9
:1055400001A001A001A001A001A001A001A001A053
:1055500001A001A001A001A001A001A001A001A043
:1055600001A001A001A001A001A001A001A001A033
:1055700042B042B042B842B042B842B842B842B873
:1055800042B842B842B842B822B842B822B822B8AB
:1055900022B822B822B822B822B822B822B822B83B
:1055A00022B822B822B822B802B822B802B802C083
:1055B00002C002C002C002C002C002C002C002C0DB
:1055C00002C002C002C002C002C002C002C002C0CB
:1055D00002C002C001C002C001C001C002C002C0BE
:1055E00002C002C002C002C001A801C00198019817
:1055F00001980198019801980198019801980198E3
:1056000001980198019801980198019801980198D2
:1056100001980198019801980198019801980198C2
:1056200001980198019801980198019801980198B2
:105630006298019801B801B002C002C002C002C065
:1056400002C001C001C002C001C001C801C001C048
:1056500001C001C001C001C001C001C001C001C042
:1056600001C001C001C801C001C001C801C801C812
:10567000E1C021C0A1C0A2D201C001C801C801C8B7
:1056800001C801C821C801C001C001C022C002C0B8
:1056900022B822B821B022B801A001A001A001A027
:1056A00001A001A001A001A001A001A001A001A0F2
:1056B00001A001A001A001A001A001A001A001A0E2
:1056C00001A001A001A001A001A001A021B000A0A3
:1056D00042B042B042B042B042B842B842B842B81A
:1056E00042B842B842B842B842B842B822B822B82A
:1056F00022B822B822B822B822B822B822B822B8DA
:1057000022B822B822B822B822B822B802C022B8E1
:1057100002C002C002C002C002C002C002C002C079
:1057200002C002C001C002C002C001C002C002C06B
:1057300002C002C001C002C001C001C002C001C05D
:1057400002C002C002C002C001A002C001980198BC
:105750000198019801980198019801980198019881
:105760000198019801980198019801980198019871
:105770000198019801980198019801980198019861
:105780000198019801980198019801980198019851
:105790006298019801C001C002C002C002C002C0EC
:1057A00002C002C001C002C001C001C001C001C0EE
:1057B00001C001C001C001C001C001C001C001C0E1
:1057C00001C001C001C001C0E1C021C062DBE1C96C
:1057D00021FF81ED21F680FF41C021CA21C001C80F
:1057E00001C001C001C001C001C001C022C002C08F
:1057F00022B822B822B022B821A842A801A001A054
:1058000001A001A001A001A001A001A001A001A090
:1058100001A001A001A001A001A001A001A001A080
:1058200001A001A001A001A001A001A042B021A8F7
:1058300042B042B042B042B042B842B842B842B8B8
:1058400042B842B842B842B842B842B822B822B8C8
:1058500022B822B822B822B822B822B822B822B878
:1058600022B822B822B822B822B822B802C022B880
:1058700002C002C002C002C002C002C002C002C018
:1058800002C002C001C002C002C001C002C002C00A
:1058900002C002C002C002C001C001C002C001C0FB
:1058A00002C002C002C002C001A002C0019801985B
:1058B0000198019801980198019801980198019820
:1058C0000198019801980198019801980198019810
:1058D0000198019801980198019801980198019800
:1058E00001980198019801980198019801980198F0
:1058F0006298019802C002C802C002C002C002C081
:1059000002C002C002C002C001C001C001C001C08B
:1059100001C001C001C001C001C001C001C001C07F
:1059200001C001C041C001C821FFC2DB80FF61FF8F
:10593000C2ED61FF62E502DC22F661FF62D222DC89
:1059400021C0E1C001C002C801C001C022C002C024
:1059500022B822B822B022B841A842B000A021A8A3
:1059600001A001A001A001A001A001A001A001A02F
:1059700001A001A001A001A001A001A001A001A01F
:1059800001A001A000A001A021A801A042B042B046
:1059900042B042B042B042B042B842B842B842B857
:1059A00042B842B842B842B842B842B822B822B867
:1059B00022B822B822B822B822B822B822B822B817
:1059C00022B822B822B822B822B822B802C022B81F
:1059D00002C002C002C002C002C002C002C002C0B7
:1059E00002C002C002C002C001C001C002C002C0A9
:1059F00002C002C002C002C001C001C002C001C09A
:105A000002C002C002C002C0009802C00198019802
:105A100001980198019801980198019801980198BE
:105A200001980198019801980198019801980198AE
:105A3000019801980198019801980198019801989E
:105A4000019801980198019801980198019801988E
:105A50006298019802C002C002C002C002C002C027
:105A600002C002C002C002C001C001C001C001C02A
:105A700001C001C001C001C001C001C001C001C816
:105A800001C001C0A2E441C080FF61FF02ED80FFC0
:105A900021C001D221C001C060FF41ED80FF80FF25
:105AA000C2ED22FF01C881C902C001C002C002C00C
:105AB00022B822B822B022B841A822B021A841A819
:105AC00001A000A001A001A001A001A001A001A0CF
:105AD00001A001A001A001A001A001A001A001A0BE
